:020000022000DC
:1070000000800020757302005D7302005F73020050
:1070100061730200637302006573020000000000E8
:107020000000000000000000000000006773020084
:1070300069730200000000006B7302006D730200B0
:1070400045A902006F73020021AB0200F5B90200EE
:107050005DB6020000000000D1A90200000000009F
:107060006F7302006F7302006F7302006F73020090
:107070006F7302006F7302006F7302006F73020080
:107080006F730200BD8402006F7302006F73020011
:107090006F7302006F730200450F03006F730200ED
:1070A0006F7302006F7302006F7302000000000034
:1070B00000000000000000000000000000000000D0
:1070C00000000000000000000000000000000000C0
:1070D0000000000000000000000000006F730200CC
:1070E00000000000000000000000000000000000A0
:1070F0000000000000000000000000000000000090
:10710000000000000000000000000000000000007F
:10711000000000000000000000000000000000006F
:10712000000000000000000000000000000000005F
:10713000000000000000000000000000000000004F
:10714000000000000000000000000000000000003F
:10715000000000000000000000000000000000002F
:10716000000000000000000000000000000000001F
:10717000000000000000000000000000000000000F
:1071800000000000000000000000000000000000FF
:1071900000000000000000000000000000000000EF
:1071A00000000000000000000000000000000000DF
:1071B00000000000000000000000000000000000CF
:1071C00000000000000000000000000000000000BF
:1071D00000000000000000000000000000000000AF
:1071E000000000000000000000000000000000009F
:1071F000000000000000000000000000000000008F
:10720000354936480A1A02D0072291438D4634493F
:1072100034480A1A06D00722914381F309880222D2
:1072200082F3148830483149314A00F044F831483B
:107230003149324A00F03FF831483249324A00F0D1
:107240003AF832483249334A00F035F83248334987
:10725000334A00F030F833483349344A00F02BF811
:1072600033483449344A00F026F83448344900227F
:1072700000F02CF833483449002200F027F8334856
:107280003349091A082902DB002202604160314AB1
:1072900090471F481F49884205D00268043003B454
:1072A000904703BCF7E700208646EC46002000210B
:1072B000294A9047FEE7884207D0521A05D0037842
:1072C00001300B700131013AF9D17047884202D088
:1072D00002700130FAE7704700800020007800203B
:1072E0000080002000800020B8410300FC2A00201C
:1072F000082C0020BC730200BC730200E8190300D4
:10730000B8410300FC2A0020FC2A0020781B03005F
:10731000781B0300781B0300781B0300781B030015
:10732000781B0300781B0300781B0300B84103009F
:10733000C4420300082C0020082C0020082C002048
:10734000EE3E0020F03E0020F03E0020F03E002007
:10735000F04600208B730200C9C40200FEE7FEE77E
:10736000FEE7FEE7FEE7FEE7FEE7FEE7FEE7FEE7F5
:1073700000F002B8FFF7FCBF0B484FF0070188434D
:1073800085460A488047FFF73BBF094809490A4A32
:10739000884207D0521A05D0037801300B700131B2
:1073A000013AF9D17047000000800020B1A402002A
:0C73B000641B0300E82A0020FC2A0020D7
:1073BC00F0B595B01D46164608460C4601F0A2FCE9
:1073CC001A9B0D93CDE9086500252B46082205A9CB
:1073DC0020460A958DF82C500C9501F0B0FC079BBB
:1073EC000293069B03939DF814308DF8115003F013
:1073FC000302012A1DD1BDF81420059DC3F3C2035D
:10740C00C2F383168DF81030B20008230EA9204663
:10741C0001F095FCC5F3952508AB0093324602AB01
:10742C000EA9284600F03EFB204601F06FFC15B07B
:10743C00F0BD022AF8D1BDF81650C3F3C203C5F350
:10744C0089158DF810300827082D2E4628BF0826E0
:10745C003B4632460EA9204601F071FCAD1B08AB31
:10746C0002AA31460EA8374400F080FB002DEBD168
:10747C00DAE7000008B500F053FC0448042100F0E2
:10748C0081FA034B01225A7108BD00BF541B030043
:10749C00FC2A00200378024613F0040006D003F007
:1074AC000300012803D0022809D0012070470B6883
:1074BC0012880233C2F3831213440B6070470B68BB
:1074CC005288023303EB92130B60EEE72DE9F04F79
:1074DC0087B000230446861C0DF107000F461546A5
:1074EC008DF8073000F078FE404A51683960936897
:1074FC0003F580735B1A924602F21C4702F583690E
:10750C0002F21448B3421AD30020002D69D004F0C3
:10751C000F039B0143F0050363F30F00DAF804300B
:10752C00DAB203321E444AF822009DF80700CAF86A
:10753C00046000F075FE012007B0BDE8F08F01215A
:10754C00384601F007F9484601F01FF9404601F0B2
:10755C001CF9DAF808000290C0B203300AEB800084
:10756C0002A9FFF797FF029B30BBDAB20AEB82024B
:10757C00D16803919A1C0133DBB20AEB83030292AC
:10758C00D3F80CB001F00303012B22D0022B15D041
:10759C008346404601F0FCF810B1029BCAF8083053
:1075AC005946384601F0D6F8DAF80830DAF80420F3
:1075BC0003F580739B1AA5E7D8B2CEE7BDF80E3061
:1075CC00C3F3891303334FEA1B4B02EB9303029370
:1075DC00DFE7BDF80C30C3F383134FEA1B4B1344A6
:1075EC00F5E7A40544F0060098E700BFD82C00206E
:1075FC00064B074810B500221A7001F03CFB0446FC
:10760C0010B9044801F094FC204610BDD82C002081
:10761C00601A0300A01B030030B50A4C71B10A4A72
:10762C000A49121BD20800239A4201D1002030BD16
:10763C0031F82350854202D00133F5E7034654F864
:10764C003300F4E7741A0300541B0300FC2A0020D7
:10765C00094B013903EBC000032909D8DFE801F01D
:10766C000A0204060420704700797047407970477D
:10767C000020704702207047741A03007047000006
:10768C00034BD3E90130C31A58425841704700BF2D
:10769C00D82C00202DE9F04186B0FFF7F1FF05460C
:1076AC00002840F0E680744CC4F81804BFF34F8FE8
:1076BC00A3680293DBB2033304EB830002A9FFF748
:1076CC00E9FE029B18B1D4F81824002A55D0DAB27E
:1076DC00991C013304EB8202DBB204EB8303D26806
:1076EC00DB68049302F00303022B039202914FD147
:1076FC00BDF80E306148C3F38917502F3E4628BFA2
:10770C00502666F38F1306F10801ADF80E3001F028
:10771C00CAFA0546002800F0978001F0F3FA00231E
:10772C0003A90822284601F000FB0299CB43DBB2E7
:10773C000133C9B20331B6EB830F4FEA830804EB74
:10774C00810122D908234246A6EB0806284601F0FF
:10775C00ECFAF6B24A4908F108033246284601F021
:10776C00E4FA029B033703EB97070297D4F818341B
:10777C00002B41D1D4F8106451E062689A4299D838
:10778C00A260284606B0BDE8F08108233246E5E742
:10779C00012B59D1BDF80C303848C3F3831106299D
:1077AC0028BF062161F3891302318900ADF80C3032
:1077BC0001F079FA0546002846D001F0A3FA00231F
:1077CC00082203A9284601F0B0FA0026BDF80C20C7
:1077DC00C2F38312B300964203F10803C6D2029996
:1077EC004A1CC9B20331029204EB810104222846DF
:1077FC0001F09BFA0136E9E7284601F087FAFFF71A
:10780C003FFF80F00105EDB2BBE7F3685B7923B174
:10781C00336829461B6830469847F3681E68002E6B
:10782C00F3D1284601F072FA0DF107008DF80760CC
:10783C0000F0D2FCD4F818340BB9029BA3609DF86D
:10784C00070000F0EDFCDAE7D4F8104454B90D4B06
:10785C000D480E49C01AC008000440F0020000F0A8
:10786C005FF8CCE7236820469B689847E3681C6860
:10787C00ECE7002585E700BFD82C0020601A030038
:10788C00E42C0020741A0300AC1A0300891B0300BB
:10789C002DE9F34704460E46924601A901221846EB
:1078AC009946FFF713FE1C4F10B3019D4FF00008D3
:1078BC00AA1CC84508EB020125D11848002100F08C
:1078CC0002FF80F31000000440EA1440E4006B1C3B
:1078DC0004F03804DBB2EDB244F0010407EB83038F
:1078EC00033544EA881444EA8624D86047F82540D6
:1078FC003B781BB1FFF7CEFE0028FBD1FFF7BEFE95
:10790C0002B0BDE8F087C9B207EB81015AF8283004
:10791C00CB6008F10108CCE7D82C0020F430002013
:10792C0000231A46FFF7B4BF07B50123019201AA41
:10793C00FFF7AEFF03B05DF804FB07B5CDE90023FC
:10794C0002236A46FFF7A4FF03B05DF804FB1FB5E2
:10795C00CDE90123069B039301AA0323FFF798FFAC
:10796C0005B05DF804FB1FB5CDE90023069B02931F
:10797C00079B03936A460423FFF78AFF05B05DF863
:10798C0004FB000030B50F49D1F810240346002049
:10799C00144634B9DC6820714AB9C1F8103422603D
:1079AC0030BDE4682579854206D02468F1E7D268B9
:1079BC00116821601360F3E701300A28E8D14FF019
:1079CC00FF30EDE7D82C0020084A38B50123D2F857
:1079DC00104413701D4604B938BDE3685D7123680B
:1079EC0020465B689847E3681C68F4E7D82C0020B5
:1079FC0010B5037A052B0C460FD0437A23B1084AF5
:107A0C000849204600F027FF0749204600F023FFD5
:107A1C002046BDE8104000F013BF002AF8D0F3E771
:107A2C00AC1B03003B340300CE1B0300C38873B5AF
:107A3C0004460D4633B1144A00921449144A2846A0
:107A4C0000F009FF217A05291CD0637A4BB1A0887C
:107A5C00FFF7FEFD0F4B104953F82020284600F08D
:107A6C00FAFE227A0D4BA08853F822600021FFF712
:107A7C00D3FD0B4903463246284602B0BDE87040A0
:107A8C0000F0E9BE02B070BDAC1B0300B91B0300D3
:107A9C00B11B0300381C03003B3403005C1C0300C7
:107AAC00D11B03002DE9F04385B01F460C9D00232C
:107ABC0095F80C902B7306460C4690462946384692
:107ACC00FFF7B4FFB8F1060F09D8DFE808F004128D
:107ADC00181F283340003146284600F0BCFE002217
:107AEC0029463846FFF784FF85F80C9005B0BDE8B1
:107AFC00F08322683146284600F0ADFEEFE7D4E96A
:107B0C0000233146284600F0A6FEE8E7A368009360
:107B1C003146D4E90023284600F09DFEDFE7E368F8
:107B2C000193A36800933146D4E90023284600F062
:107B3C0092FED4E723690293E3680193A368009350
:107B4C003146D4E90023284600F085FEC7E7636977
:107B5C00039323690293E3680193A368009331466E
:107B6C00D4E90023284600F076FEB8E708292DE971
:107B7C00F74F80460E4617461C463CD800251B7B0B
:107B8C002573214610460193FFF750FFDFF884A0C0
:107B9C00DFF884B0AE4231D918F80520594620469A
:107BAC0000F059FE0135082DF4D11949DFF86CA00D
:107BBC00DFF86CB0204600F04EFE4FF000094E4549
:107BCC0021D918F809507E2D03D8284609F042FE19
:107BDC0000B92E252A465946204600F03CFE09F1F4
:107BEC000109B9F1080FEAD1012221463846FFF705
:107BFC00FFFE019B237303B0BDE8F08F5146204676
:107C0C0000F029FECEE75146204600F024FEE6E7C0
:107C1C00E51B0300E11B0300DB1B0300E31B03005C
:107C2C00E71B0300014B01221A707047D131002071
:107C3C007047000070B5124D06460FCD88B06C46EB
:107C4C000FC495E80F00002E84E80F004FF0FF33AF
:107C5C004FF00602CDE90023CDE90233094A0A4868
:107C6C004FF0EB7308BF00226946069302F0EAFD61
:107C7C0008B100F058F8054B1E7008B070BD00BF7D
:107C8C00701C0300317C0200042B0020903100207A
:107C9C0007B5044B0093044A4023FFF789FB03B05C
:107CAC005DF804FBB97C02009131002038B50D4B16
:107CBC000D4D002018700D4804782D5DD2B21C4675
:107CCC0065B1043003F094FB08B100F02CF8084BBC
:107CDC001A7812B12378002BFBD038BD0C3003F08E
:107CEC0049F9F1E7D131002078340020042B002031
:107CFC009031002008B50848084A0378D35C3BB1A2
:107D0C00043003F0E5FABDE808400020FFF792BF0D
:107D1C000C3003F0C5F8F6E7042B00207834002073
:107D2C000120FFF787BF1FB50021039001AA44F281
:107D3C000100CDE9011100F003F805B05DF804FB7A
:107D4C0010B572B6FFF740FEFFF7A4FC0028FBD17C
:107D5C00104B114C1149E41AE408240444F00100BE
:107D6C00FFF7DEFD0E4B1B68DB0700D500BE0D498F
:107D7C0044F00200FFF7D4FDBFF34F8F0A490B4BC1
:107D8C00CA6802F4E0621343CB60BFF34F8F00BFAD
:107D9C00FDE700BF741A0300AC1A0300A71C030014
:107DAC00F0ED00E0B31C030000ED00E00400FA0568
:107DBC00D0E90223D1E90201994208BF90422CBFBD
:107DCC00012000207047000008B50B4800F059FB5B
:107DDC000A4B0B49D3E900231218D1E9000143F1F6
:107DEC0000038B4208BF824203D212F1807243F12E
:107DFC0000031046194608BD182B0020D83100206E
:107E0C005032002037B505460C460A4801A900F04F
:107E1C008EFB60B10570446001A9064800F0B1FB0F
:107E2C0018B1054800F032FB002003B030BD04202F
:107E3C00FBE700BF3C320020182B0020284B73B509
:107E4C001E7804461EB90026304602B070BD0028CC
:107E5C00F9D0FFF7B9FFD4E90223994208BF904249
:107E6C0038D300230DF107008DF8073000F0B4F97A
:107E7C0023692BB94FF0FF324FF0FF33C4E90223D3
:107E8C009DF8070000F0CCF9D4E90530984700259F
:107E9C000DF107008DF8075000F09EF92169B9B17A
:107EAC00D4E90223581C08BFB2F1FF3F05D0521889
:107EBC0043F10003C4E9022335469DF8070000F0A6
:107ECC00AFF9002DBFD00748214601F050F8BBE7B1
:107EDC000D46F2E7013308BFB2F1FF3FB3D0F2E732
:107EEC00E0310020D01C030013B5114B1149186868
:107EFC00019008231048582200F0E4FA044698B97F
:107F0C000E4A0F4801A900F0ADF9044660B90C48BF
:107F1C00012100F099FA01230A4A0948194600F098
:107F2C00FBF9094B01221A70204602B010BD00BFAC
:107F3C00CA1C0300E43100203C32002029800200DE
:107F4C00182B0020FFFF7F00E031002030B56AB114
:107F5C0003684FF0FF344FF0FF355A614A1E51420F
:107F6C00C3E9024551411961002030BD0720FCE7EF
:107F7C00F7B5054600240DF1070017460E468DF89F
:107F8C00074000F029F9D5E90223013308BFB2F10B
:107F9C00FF3F07D1FFF718FF801941F10001C5E938
:107FAC00020101249DF8070000F03AF94CB12B694D
:107FBC00AF6103B12E6129460020FFF723FF03B008
:107FCC00F0BD2046FBE737B5054600240DF1070050
:107FDC008DF8074000F000F9D5E90223013308BF02
:107FEC00B2F1FF3F06D04FF0FF324FF0FF33C5E93F
:107FFC00022301249DF8070000F012F92CB1294648
:10800C000120FFF7FFFE03B030BD2046FBE7000068
:10801C00014800F036BA00BF182B00202DE9F74FAD
:10802C00804600F019FA40B1634AD2E9003113F1ED
:10803C00807341F10001C2E900310021404600F09B
:10804C001AFA38B15D4E336823B13068FFF7F6FE8B
:10805C00002333600121404600F00DFA20B1FFF7F8
:10806C00B3FE574BC3E900015648DFF8509101A904
:10807C0000F097FA4FF0FF364FF0FF3798B9DFF862
:10808C0048A14E4F504600F088FF002800F0878032
:10809C00D0E90223591C08BFB2F1FF3F34D150463E
:1080AC0000F075FFEEE70378012B20D0022B09D1ED
:1080BC00DFF814A1504600F06AFF002877D0C0E921
:1080CC000267F7E753B94168D1E90223013308BFCE
:1080DC00B2F1FF3F02D03C4800F049FF01A93948FA
:1080EC0000F08AFA01A9374800F05BFAC6E741684C
:1080FC00D9F80030994203D10023C9F80030EDE7DC
:10810C00314800F04DFFE9E7396891B13968D1E9A0
:10811C0002018B4208BF82422FD23B68D3E9022373
:10812C00013308BFB2F1FF3F03D03968504600F06D
:10813C001EFF504600F02BFFD0E9026B8146FFF783
:10814C0043FE341A6BEB0105012C75F1000319DBAE
:10815C00B4F5350F14D3FFF75BFF1C4A02441C48DF
:10816C004FF49603002100F0F7F898B93B6813B967
:10817C00404600F0C9F8C7F8009003B0BDE8F08F96
:10818C003246ECE71248002100F06BF94846FFF745
:10819C0055FE01E00D28F9D000233B6072E7074B38
:1081AC001B68002BE9D1404600F0B2F8E5E7094B1B
:1081BC0001221A7092E700BFD831002058320020FB
:1081CC00503200203C320020D01C0300FFFFB400D2
:1081DC00182B0020E031002070B5EFF3108672B63A
:1081EC000C4A946801239CB993600B4B0B4DD3F84C
:1081FC00801029401160C3F88050D3F8841051606E
:10820C004FF0FF32C3F88420047006B962B670BD1B
:10821C000370FAE75C32002000E100E0FC06FFBDD1
:10822C00084B9A6810B55AB150B9EFF3108172B679
:10823C00054A1C6814605C685460986001B962B6A9
:10824C0010BD00BF5C32002000E100E00346405846
:10825C0082B028B100225A505B580193019B012037
:10826C0002B07047F8B5204B4479204D43F82420D8
:10827C001F4A204B05EBC4049B1A2279DB081B0414
:10828C0032B143F002001C49FFF74AFB0820F8BD4D
:10829C0002680C88C2F8084590F904608A78047961
:1082AC005201002ED2B219DB14498F1987F8002322
:1082BC000122760904F01F0402FA04F441F8264066
:1082CC00427905EBC201012445F832000C7143F0F0
:1082DC0003000B49FFF724FB0020D8E7094904F001
:1082EC000F040A55ECE700BF703200206832002002
:1082FC00741A0300BC1A0300DC1C030000E100E04C
:10830C00FE1C030014ED00E0036801221A607047A4
:10831C00036801225A60704773B501F15005AD0036
:10832C000068ADB24FF480348C400026C0F808438E
:10833C00C0F84843465101F5A8714559019522F002
:10834C007F42019D40F82120C0F844430BB1C0F896
:10835C00044302B070BD00002DE9F74F0D4622F02A
:10836C007F4402684FF4803705F150068F408046F9
:10837C00B60002EB8500C2F84873B6B2C2F80873B7
:10838C00D2F8041599464FF0000BD0F84035C0F8E0
:10839C00401542F806B05B1A9259009223F07F43C5
:1083AC00012B009A4FEA850A0CD1264B4FF48060C2
:1083BC0043F001039847D8F8003043F806B09B59B6
:1083CC000193019BD8F80010D1F80465C1F84473EF
:1083DC00A31B23F07F43012B1CD11A4B05F5A87569
:1083EC00013443F0010341F825404FF48060984775
:1083FC00D8F80030D3F804359E4209D1D8F80030B3
:10840C000020C3F84473C3F8047303B0BDE8F08FC5
:10841C000D20FAE78A44C9F1FF13CAF84045D1F898
:10842C000405221A013A22F07F4203F57F4393425E
:10843C00EED3002AE2D10134CAF84045D1F8043514
:10844C009842DAE7101D030003680222C3F84423A4
:10845C0009B1C3F80423704700684FF48271FFF729
:10846C00F5BE4FF4803303FA01F10368C3F84813E7
:10847C00C3F80813704750318900006889B2FFF7C0
:10848C00E5BE0368D3F804057047000090F904308A
:10849C00002B09DB5A09012103F01F0301FA03F336
:1084AC004032024941F82230704700BF00E100E041
:1084BC00024B034A1B681068184700BF703200203B
:1084CC006832002030B5054659B1B2FBF3F403FB1A
:1084DC001424A0B238B9C5E90010A860AA81EB81B8
:1084EC0030BD0E20FCE70920FAE782B050E8022FDD
:1084FC00C188B2EB324F4FF0000317BF92B241EA82
:10850C00014142EA014104E04268B2EB324F08BF3C
:10851C00012340E80212002AE8D18DF807309DF8BB
:10852C000730002B0CBF1120002002B0704737B56C
:10853C0050E8013F9DB2C48925448489A54228BFD7
:10854C002D1B0489A54202BFBFF32F8F002207E029
:10855C00C5EA030540E80154002CE9D14FF00102B3
:10856C008DF803200193019B9DF803200B6002F012
:10857C00FF0322B10B880068184403B030BD1846C5
:10858C00FBE70A884B889A4209D150E8012FC2EACE
:10859C00024240E80123002BF7D101207047002054
:1085AC00704737B550E8023F1FFAA3F5C488A542BF
:1085BC0002BFBFF32F8F00220DE0C48925448489AC
:1085CC00A54228BF2D1BC3EA054540E80254002CE8
:1085DC00E8D14FF001028DF803200193019B9DF827
:1085EC0003200B6002F0FF0322B14B880068184493
:1085FC0003B030BD1846FBE70A884B889A4209D174
:10860C0050E8022FC2EA224240E80223002BF7D1A5
:10861C00012070470020704701F01F024B09012117
:10862C00914000EB830000F065B84B0910B501F0E8
:10863C001F040121A14000EB830000F04FF8E04043
:10864C0000F0010010BD01F01F0301229A404B09FC
:10865C0000EB8300D14300F065B84B0901F01F011A
:10866C0050F82300C84000F0010070472DE9F04796
:10867C004F1E7F0980460E460137002558F82540CD
:10868C0008EB8509E44394FAA4F4B4FA84F44FEAB1
:10869C00451A202C06D10135AF42EFD8344620467E
:1086AC00BDE8F0875444A642F5D921464046FFF771
:1086BC00BCFF0028F3D0D9F80040E44394FAA4F4AA
:1086CC00B4FA84F4E5E710B5034653E8000F0A4604
:1086DC0043E8002494F0000FF7D110BD10B5034609
:1086EC0053E8000F40EA010243E8002494F0000F25
:1086FC00F6D110BD10B5034653E8002F42EA010035
:10870C0043E8000494F0000FF6D110BD10B50346F9
:10871C0053E8000F00EA010243E8002494F0000F34
:10872C00F6D110BD10B5034653E8002F02EA010044
:10873C0043E8000494F0000FF6D110BD10B50346C9
:10874C0053E8000F00EB010243E8002494F0000F03
:10875C00F6D110BD10B5034653E8002F02EB010013
:10876C0043E8000494F0000FF6D110BD10B5034699
:10877C0053E8002FA2EB010043E8000494F0000F33
:10878C00F6D110BD0121FFF7A9BF0121FFF7B2BF40
:10879C000021FFF7BBBF10B590B1D0E901230168F0
:1087AC009B1ADBB20A60013BDBB2FF2B026802D1E1
:1087BC000020107110BD11684C1C14600B70F2E796
:1087CC000E20F7E737B5054600240DF107008DF8AC
:1087DC000740FFF701FD2A686B68116899420ED9B2
:1087EC00481E106011F8014CEB68298A01FB043417
:1087FC00AB6811791B1ADBB2994238BF13719DF823
:10880C000700FFF70DFD204603B030BD37B5054618
:10881C0000230DF107000C468DF80730FFF7DCFC48
:10882C002A681368591C1160E968641A298AB4FB18
:10883C00F1F41C709DF80700FFF7F2FC03B030BD9B
:10884C00826810B504462AB14369016800699847EB
:10885C000023A36010BD0EB403B5039921B104AB82
:10886C0001AA019300F076F802B05DF804EB03B0B6
:10887C0070470A2938B504460D4602D10D21FFF781
:10888C00F8FFA3682268591CA160D554D4E90132C1
:10889C009A4204D32046BDE83840FFF7D1BF38BD1B
:1088AC002DE9F84F9846DDE90A43154682460F46F6
:1088BC000A464FF00109AA420FD2C14538BFC14642
:1088CC0013F0010B01D16CB900240126B8F1010F92
:1088DC001BD908F1FF386E43F8E709F10109B2FB27
:1088EC00F5F2E8E79B070ED5B8F1000F0CBF302668
:1088FC002026A145E9D2013C31465046FFF7B9FF8D
:10890C00002CF6D1E0E72026F3E7B7FBF6F39D4207
:10891C00E1D9DFF83C80B7FBF6F3504618F80310AA
:10892C0006FB1377FFF7A5FF3346AB42B6FBF5F614
:10893C00F1D2BBF1000F02D00CB1A14501D3BDE8BF
:10894C00F88F20215046013CFFF793FFF4E700BF5E
:10895C00161D03002DE9F74F0546174688460029DA
:10896C0000F0428118F8011B49B92B7B002B00F059
:10897C003B81284603B0BDE8F04FFFF761BF2529C6
:10898C0040F0B780002698F800302D2B424608F1B5
:10899C00010823D0302B24D02B2B25D000242A2BBC
:1089AC0002F1010123D13B681A1D1B683A601C447B
:1089BC000A4613782E2B26D101324FF0000A1046AE
:1089CC0010F8011BA1F1300CBCF1090F1DD80A23C2
:1089DC0003FB0A13A3F1300A0246F0E746F0010646
:1089EC00D1E746F00206CEE746F00406CBE711F8D5
:1089FC00013CA3F130000928DBD80A2202FB043425
:108A0C00303C0A46CBE74FF0000A12F8011B01F08C
:108A1C00FB0068289046F8D0782909D86F290CD823
:108A2C00632962D022D8252963D0582900F0888088
:108A3C0098F80030002B95D197E770390829F7D8B2
:108A4C0001A353F821F000BFCF8B02003D8A020036
:108A5C003D8A02005D8B02003D8A02003B8B0200C6
:108A6C003D8A02003D8A02004D8B0200642901D030
:108A7C006929DDD13A68D2F80090111D89EAE972B2
:108A8C003960A2EBE9724FF0010B092A35DCD345B2
:108A9C0038BFD3462CB1B9F1000F01DB720700D5FA
:108AAC00013CB30702D5BAF1000F03D0F00701D493
:108ABC004CBB0024B9F1000F2DDAC9F100092D21AE
:108ACC002846FFF7D6FE06F00302022A04D1BAF1BB
:108ADC00000F01D11CBB0024CDE9004653460A22ED
:108AEC0049462846FFF7DCFEA2E73B681A1D1978B9
:108AFC003A602846FFF7BDFE9AE70A230BF1010BFB
:108B0C00B2FBF3F2C1E7A345D4D220212846013CA5
:108B1C00FFF7AFFECCE77107D5D52B21D0E7A345E6
:108B2C00DAD230212846013CFFF7A3FED2E73968A0
:108B3C00CDE900460A1D3A6053460A220968D0E77F
:108B4C0039680A1D3A60CDE9004653461022F5E714
:108B5C003B681A1D3A6016F00106D3F8009028D134
:108B6C00B9F1000F03D0484608F008FF0646B4429E
:108B7C0000D904BB09F1FF3919F8011F00293FF492
:108B8C0057AF2846FFF775FEF6E728460136FFF784
:108B9C0070FE19F806100029F7D1A642BFF448AFB1
:108BAC00002C3FF445AF20212846013CFFF761FE25
:108BBC00F3E70026EDE720212846013CFFF759FE9C
:108BCC00D5E73B681A1D3A60302128461C68FFF730
:108BDC0050FE78212846FFF74CFE00220823CDE9F1
:108BEC000032214610227CE703B0BDE8F08F00BFB5
:108BFC002DE9F84FB0F806A04579D2F800B09DF8F1
:108C0C0028900AFB05F5043D88460BEB0301A942AD
:108C1C0003F1040488BFA5EB030BB4FBFAF607467B
:108C2C000AFB1644C2F800B04EB9AAEB04055D4528
:108C3C0028BF5D46BBF1000F04D1BDE8F88F3F683B
:108C4C00013EF1E7043408EB06003C442A46B9F136
:108C5C00000F0DD02146ABEB050B08F033FEDA45C7
:108C6C002E443F6855464FF0000428BF5D46E1E7AF
:108C7C0001462046EFE7FFF78EBDF8B54679014671
:108C8C00721E0546002393422D6803D30024A6428E
:108C9C0002D8F8BD0133F6E70F682846FFF7B6FD9A
:108CAC0001343946F3E72DE9F843068ACD1C074613
:108CBC00FFF788FD043E35440446B5FBF6F5F0B1EC
:108CCC004FF48073EDB28380C680013D076081460E
:108CDC004FF00008A84512D23846FFF773FD064640
:108CEC0048B163790133637108F10108C9F80000D8
:108CFC0007608146EEE72046FFF7BFFF344620466B
:108D0C00BDE8F88301210430FFF724BD10B5012123
:108D1C0004460430FFF72AFD10F0FF0F04D1204663
:108D2C00BDE81040FFF7A9BF10BD1FB5039200228C
:108D3C00009203AAFFF75CFF05B05DF804FB1FB5BA
:108D4C0003920122009203AAFFF752FF05B05DF8CF
:108D5C0004FB33DF704741DF70470000134B1448AE
:108D6C001449C01AC008000410B540F00300FEF707
:108D7C00D7FD114B00241C70104B1C60BFF35F8F90
:108D8C000F49104800F0DDF80F4B104A10481C80BA
:108D9C000121FFF7DBF8024630B9BDE810400D4861
:108DAC004FF48041FFF7E4B810BD00BF741A030004
:108DBC00441B0300261D03007D320020803200205E
:108DCC00BC1D0300743200207E320020198F02007B
:108DDC00B81D0300202B002008B508F093F818B13B
:108DEC00BDE80840FFF7B7BF20BF40BF20BF08BD9C
:108DFC002DE9F047384C054601212046FFF763FC6E
:108E0C00BFF35F8F274638B9042D0BD0334B1A783C
:108E1C0022B1BFF35F8F2060BDE8F087304A157038
:108E2C0001221A702F4B304C3049DFF8D890DFF804
:108E3C00D8A0E41AE40824042A4644F00304284D7C
:108E4C002046FEF771FD2A7829492046FEF76CFD75
:108E5C00D9F80460D6B927492046FEF761FDFEF724
:108E6C00B3FDFEF717FC0028FBD12B78023B012B3E
:108E7C0023D8BFF34F8F2049204BCA6802F4E0621D
:108E8C001343CB60BFF34F8F00BFFDE733682878E7
:108E9C0098473268804638B120465146FEF744FD6B
:108EAC00484600F058F8D3E715492046FEF73CFD3C
:108EBC00BFF35F8FC7F80080AEE708F023F808B166
:108ECC00FFF747FF4FF080430122C3F80025BFF3A3
:108EDC004F8F20BFFDE700BF803200207D32002085
:108EEC007C320020741A0300441B03002B1D03006A
:108EFC003F1D03009A1D030000ED00E00400FA057D
:108F0C00781D030074320020591D0300064A138893
:108F1C001D2B02D8013313807047044B187808B905
:108F2C00FFF766BF704700BF7E3200207D32002005
:108F3C00836800225A60C3E904229A60DA601A60DE
:108F4C0070470B684A684360934208BF0023016076
:108F5C0008BF43607047436843B102689168526828
:108F6C000B449342436004BF00234360704770B5C9
:108F7C00446806460D46206818B1B36829469847E0
:108F8C0018B923682B60256070BD2468F3E743682B
:108F9C00186808B102681A6070474368186870470F
:108FAC004368186800B97047884203D102681A6098
:108FBC000120704703460068F4E7000010B50D4926
:108FCC00A1F59472914201D800200FE08C1AE30FA6
:108FDC0003EBE4035B1002EBC30452F8333083421F
:108FEC0005D802D204F10802ECE7606810BD2146F6
:108FFC00E8E700BFC822030008B5FFF7DFFF024B0C
:10900C00002808BF184608BD8B21030070B5064E1A
:10901C000546002456F8043B0BB12846984701340A
:10902C00042CF7D170BD00BF90320020033080B209
:10903C0040F2FE33984230B51FD8134B1A783AB928
:10904C001C895D892C440444A4B2B4F5806F0AD900
:10905C001A7DAAB99A8BDC8B2244024492B2B2F5E7
:10906C00806F0DD801220A801446142202FB0433AF
:10907C005A8910445881002030BD48F20860FBE743
:10908C0048F20660F8E700BFC43200200B4A0C4BD4
:10909C005188142000FB0131CB6833B90420496896
:1090AC0010700122074800F0F3BF07490523137025
:1090BC0002238B80012209680023F3E7A8320020E9
:1090CC00C4320020E82A00208C33002007B500238E
:1090DC0005490093054A09680548082300F042FF3A
:1090EC0003B05DF804FB00BF8C330020D4220300D6
:1090FC00E82A002007B5002301460093034A0448E0
:10910C00082300F02FFF03B05DF804FBCC22030012
:10911C00E82A002013B500230C4600930146084AA8
:10912C000848042300F01EFF38B90749142303FB39
:10913C0004140123237402B010BD48F20D60FAE749
:10914C00C8220300E82A0020C432002037B50A48A0
:10915C000A4B42689C8819685388032503330570B1
:10916C009BB2002000909B0001EB8401044800F0AE
:10917C00F9FE03B030BD00BFA83200208C330020B4
:10918C00E82A002010B501460448FFF7D0F91C224C
:10919C000446002108F0BFFB204610BD78330020A8
:1091AC0068B10268084B9A4209D14068074B984253
:1091BC0007D00133984214BF0320012070470320CD
:1091CC0070470020704700BFDEC0ADDEFE011EF10F
:1091DC004388033300EB830399420BD382884FF609
:1091EC00FF739A4208D0038833B18068431C5842FD
:1091FC005841704702207047012070472DE9F0411B
:10920C000D460223154F2B80164600F5805100F1B8
:10921C0008044FF001088C420ED2236801330BD0A6
:10922C002046FFF7D5FF48B10EB186F80080022822
:10923C0009D14FF480632B80BDE8F081A3683A68B4
:10924C00934200D93B602B886288033313442B80F4
:10925C006388033304EB8304DDE700BFBC320020DA
:10926C0038B5144B14220D4602FB00302B684468B1
:10927C0004F58051A3B15C88033403EB84048C4265
:10928C0015D22368013312D02046FFF7A1FF012825
:10929C0008D002280BD00028F1D12C60012038BD59
:1092AC000834ECE76388033304EB8304E7E700201E
:1092BC00F5E700BFC4320020426873B504460D4682
:1092CC006AB3244BD9688A4229D31B699A4226D89F
:1092DC0012F0030323D120490089098988421ED149
:1092EC002068916888421AD11C494868824203D987
:1092FC0000F5805082420DD389698A420CD901F560
:10930C0080518A4208D201222A80B3FA83F04009A4
:10931C0002B070BD1A46F7E748F20963F5E700237F
:10932C002B801E460196288801A9FFF799FF30B9BA
:10933C002B8801339BB2012B2B80F3D9E8E7019BDF
:10934C00226899689142EED16360034B1B8923819B
:10935C00DEE700BFE82A0020A8320020C43200203B
:10936C002DE9F8431C461D4B1B7806460F46154647
:10937C0073B382B37CB3DFF86C804FF01409A3880D
:10938C00012B02D948F2096020E009FB03F318F81D
:10939C0003302BB9A0882146FFF762FF20B920606B
:1093AC00A3880133A380EAE723681EB19988328829
:1093BC009142EFD11FB119883A889142EAD19A684B
:1093CC00C5E90023064B1B892B810020BDE8F883DF
:1093DC0048F20160FAE748F20460F7E7A032002097
:1093EC00A8320020C432002008B5074B5888191D3C
:1093FC00FFF736FF18B1BDE80840FFF7A7BEBDE880
:10940C000840FFF743BE00BFA83200202DE9F04F03
:10941C00A14FDFF8A89289B00646B8463B6823B93D
:10942C009E484946FFF7BDF83860D8F800502978B7
:10943C004B1E052B07D8DFE813F0220077007700CE
:10944C0009010901620148F20E641422002103A8EB
:10945C0008F061FA41F61D539C4208BF0024D8F86D
:10946C00003004941A78013A052A00F2F481DFE8FE
:10947C0012F0E001E4010402140220022A022EB1CF
:10948C00874B00225A604FF40644DEE72B79032BFE
:10949C001DD8DFE803F015022B3682490B78022B1E
:1094AC0008461AD00B7D022B4FF0010317D1142262
:1094BC005343C2180020C8545068FFF71BFE03E04A
:1094CC0001232B71FFF702FE002800F0B980744BCA
:1094DC0000225A6048F20D64B7E70023E7E7704AB0
:1094EC0013700023536041F61D54AEE76E496F486C
:1094FC00002302222B718A800968012200F0C8FD2A
:10950C00E2E76B4B684A5988106800262E711423C9
:10951C00644D4B43E918EE544C68146094884860D1
:10952C000C8102219180C8E7B5F814A0AA7DDFF860
:10953C0074B1AEB1022AEB8806D9142101FB0AB131
:10954C00DA1C088902440A81142202FB0ABAC3F508
:10955C007F43BAF80A20FD331344AAF80A3092E785
:10956C00142303FB0AB318895C6804EB8004062AF5
:10957C0069D8DFE802F0274E36441D5A040041F644
:10958C001D54AA7DEB88022A06D9142101FB0AB1CD
:10959C00DA1C088902440A81142202FB0ABAC3F5B8
:1095AC007F43BAF80A20FD331344AAF80A304CE77B
:1095BC004048414900234360AB690360FFF77CFEE0
:1095CC0000285BD00223AB75002300930423EA1818
:1095DC002146364800F0C6FC002831D048F20D6414
:1095EC00CFE72B69002B14BF03230123AB7500239A
:1095FC00009305F10C02042304F10801E9E70123AF
:10960C00AB750022EB8800922A699B0004F10C01D7
:10961C00DFE703290CBF05230623AB75002300935A
:10962C00042305F10802E118D3E70623AB75224B9E
:10963C001988204B5868FFF76DFD04460028A0D10F
:10964C0009B0BDE8F08F48F20E649AE7002E7FF463
:10965C001AAF2B79012B33D0022B3FF444AF002BE4
:10966C007FF4F1AE02232B710DF10A01EB68039329
:10967C0003A8CDE90466FFF71FFE10B948F2096490
:10968C00E3E60498BDF80A108388EB8003882B81ED
:10969C00FFF740FD044628E0C0320020783300205C
:1096AC00A0320020C43200208C330020E82A002095
:1096BC00A83200208432002098330020B8320020D9
:1096CC00DFF81CA203AA53463146A81DFFF748FE3B
:1096DC00044670B9BAF804100498FFF71BFD044651
:1096EC0048F209639C423FF4FEAE002C7FF4ADAE11
:1096FC00A6E708223146504608F00DF9F0E7002E97
:10970C007FF4C1AE714B1A7BB2B11E731A78013A59
:10971C00062A3FF698AE01A151F822F0D397020029
:10972C00F9970200179802001D980200539402004A
:10973C0023980200359802001A78072AE6D801A16E
:10974C0051F822F071970200199702001997020044
:10975C0097970200AB970200CF970200CF970200B9
:10976C00939702001A895A4901321A8100225A80B1
:10977C001A730A78B2FA82F252099A720A7DB2FA14
:10978C0082F25209DA72012207E0524958688A883B
:10979C004088033202448A8002221A70B6E74C4C8D
:1097AC005A884C49142505FB0242086854685060DD
:1097BC008888108102200C60888000211174062298
:1097CC00EBE70722E9E79A7A32B9DA7A8AB900220A
:1097DC001A705A805A6086E63D4900229A72CA680D
:1097EC00002AF2D1097C0029EFD05A80FFF7FCFD4A
:1097FC0050E70022DA72364A116A0029E7D192F852
:10980C002420002AE3D00122EFE7FFF79FFC41E779
:10981C00FFF73CFC3EE72E4A5B88142101FB032337
:10982C005868FFF767FC35E700225A60FFF74EFCDB
:10983C0030E700238DF80C300DE001228DF80C2060
:10984C001A89ADF818209A88DB680593ADF81A20B0
:10985C0000238DF81C3003A8FFF7D8FB00264946DF
:10986C001D48C8F80060FEF7C7FE1C480121FEF732
:10987C007DFF00287FF4D2ADE2E602228DF80C20A9
:10988C001A89ADF818209A88ADF81A20DA689B7DF1
:10989C0005929A1F53425341DBE703228DF80C20AB
:1098AC00DA88ADF818201A89DB68ADF81A20059310
:1098BC00D1E704228DF80C20DB88ADF8183000239A
:1098CC00ADF81A30F3E70523B4E700BFA832002047
:1098DC00C43200208C3300207833002088330020E1
:1098EC009C3300204068FFF791BD000008B5054887
:1098FC000121FEF723FF18B9BDE80840FFF786BD2C
:10990C0008BD00BF883300202DE9F3419846374B42
:10991C001B7806460D46002B5CD000295DD00988CB
:10992C004FF6FF7399425BD06B88002B58D06B6855
:10993C009B0758D14AB92F890DF102013846FFF720
:10994C0075FB30B102B0BDE8F08113885788ADF8D3
:10995C00023001A8FFF716FC044660B9BDF80230CE
:10996C00234A142101FB032358890338C01B588157
:10997C0048F20760E6E780F8008000238375BDF8A5
:10998C00023083826B68036101211A48FEF7E2FE04
:10999C002B882381B8F1030F6B88A38004BF0423A9
:1099AC00A3754FF0000508BF3368E06008BFA361E2
:1099BC001148E780658101A9FEF7E3FD36B1E36844
:1099CC0033600E4B75601B89B5723381FFF78EFFC8
:1099DC000020B7E748F20160B4E748F20460B1E751
:1099EC0048F20360AEE748F20260ABE7A032002019
:1099FC00C4320020BC32002078330020A832002072
:109A0C0008B5034607480268042A08D00168064ACC
:109A1C0042F821300121FEF79DFE002008BD48F2DE
:109A2C000B60FBE794330020903200202DE9F04FBF
:109A3C0089B01422002103A807F06DFF7C4A13782B
:109A4C0003F0FF01009190463BB103A8FFF7DEFA4B
:109A5C000027384609B0BDE8F08F101DFEF792FEC6
:109A6C000028F5D140F6F8734FF080521B685C1C4F
:109A7C0008BF704B704C08BF1B6811695269581CA9
:109A8C0008BF02FB01F323616C49A3F5405300228C
:109A9C002046E36000F034FA019407460028D8D140
:109AAC0067496848DFF8B0B11C238C22FEF70AFD29
:109ABC00BA463D464FF003093C46019BDE685644CE
:109ACC003046FFF76DFB012867D0032817D000281C
:109ADC003DD15D494FF0140C0CFB04FC01EB0C0266
:109AEC0001F80C0056600CF110020CF1080C0A4441
:109AFC0030466144FFF782FB45F002054AE03268CC
:109B0C00531C02D0514B9A4239D1321D06F580516B
:109B1C001068013033D104329142F9D1DBF80020C6
:109B2C003AB902220123CBF80060ABF80420009371
:109B3C000BE014226243444B022099189854444A77
:109B4C004E60548001340881A4B245F001050AF539
:109B5C00805ABAF5405FB0D1B9F1010F98BF00251A
:109B6C00EDB2022D03D0062D36D0002D3ED10023B0
:109B7C0088F8003048F20A67C8F8043069E73249BF
:109B8C0014226243881809F1FF3946600320885477
:109B9C001FFA89F90134A4B2D9E7009B6BB12A4BA7
:109BAC0014226243991802209854DBF800204A6072
:109BBC00274A088154800134A4B200222549CBF8ED
:109BCC0000603046FFF71AFBBBF80420022A0CBFDA
:109BDC00042208221543BAE7012388F8003003A8B1
:109BEC000023C8F80430FFF711FA32E702A8FFF798
:109BFC00C9FAC8B10123013D03700A2D09D8DFE869
:109C0C0005F006080608070807080F110F000023C7
:109C1C00037102A90B48FEF7B4FCFFF767FE18E7C7
:109C2C000323F5E70223F3E748F2076711E700BFC8
:109C3C00A032002014100010E82A0020B8240300E1
:109C4C00EC32002078330020C4320020DEC0ADDEC0
:109C5C00A8320020903300208C33002073B50D46C1
:109C6C000446C8B1C1B10DF10601FFF725FBB0B137
:109C7C000C4BBDF806006668142202FB0030012173
:109C8C000C30FEF767FD63682E600C336B600123AC
:109C9C00A372002002B070BD48F20460FAE748F2EB
:109CAC000960F7E7C432002013B50446A8B10DF1E2
:109CBC000601FFF701FB98B10C4ABDF806301421E0
:109CCC0001FB0323DA6872B1A27A62B1DA68002070
:109CDC00013ADA60A07202B010BD48F20460FAE7F3
:109CEC0048F20960F7E748F20560F4E7C432002057
:109CFC0002230022FFF708BE18B103230022FFF74E
:109D0C0003BE48F204607047114B1B7813B5044630
:109D1C00ABB14FF6FF73984214D001A8FFF732FA9B
:109D2C0098B10523037001230371C48001A909486C
:109D3C00FEF727FCFFF7DAFD002002B010BD48F259
:109D4C000160FAE748F20360F7E748F20760F4E7CE
:109D5C00A0320020783300200F4B1B7807B5A3B13D
:109D6C0001A8FFF70FFA98B10623037001A90B485D
:109D7C00FEF707FC0A4B1A780AB101221A73FFF797
:109D8C00B5FD002003B05DF804FB48F20160F9E773
:109D9C0048F20760F6E700BFA032002078330020BD
:109DAC00A832002007B5ADF80600ADF804100DF18F
:109DBC00060001A9FFF7D4FA03B05DF804FB07B560
:109DCC001346ADF806000A4600200DF10601FFF718
:109DDC00C7FA03B05DF804FB07B51346ADF80600EF
:109DEC000A460DF106000021FFF7BAFA03B05DF840
:109DFC0004FB20B119B103680B600020704748F2D6
:109E0C00046070472DE9F84F3B4B1B780446002B40
:109E1C006CD000286DD0DFF8E4A01222002107F0EE
:109E2C007AFD032323804FF0000BD04614274FF00C
:109E3C000109DAF80410BAF80A50BAF808600846B2
:109E4C00FFF7AEF9032808BF2388628804BF03F12B
:109E5C00FF33238007FB0B832E44DB6813446380A2
:109E6C0023891D4463892581B6B233446381C6F5C9
:109E7C008066A389B6B2B34201F1080538BFA6814A
:109E8C0001F58051A94229D92B68013326D02846E7
:109E9C00FFF79EF901280AD0022815D00028F1D12D
:109EAC00A3880133A3800AE04FF0010BC1E7E388DC
:109EBC000133E380E3896A8803331344E3816B88BD
:109ECC00033305EB8305DDE7E38884F81090013359
:109EDC00E380E389491B03EBA101E1810AF1140A38
:109EEC00BBF1000FE0D00020BDE8F88F48F2016014
:109EFC00FAE748F20460F7E7A0320020C4320020F1
:109F0C0013B50B46114680B9104B1148114AC01AB3
:109F1C000E23C0080093104B0004104940F00100C0
:109F2C00FDF715FD0E2002B010BD4BB9074B0848CC
:109F3C000B4AC01AC0080E2300930004064BECE732
:109F4C0003601B6802B0BDE810401847741A030088
:109F5C00DC1A0300DC22030072240300E12203005C
:109F6C00102303002DE9F34188B93D4B3D483E4A8F
:109F7C00C01AC0080E243D4B009400043C4940F02C
:109F8C000100FDF7E4FC204602B0BDE8F0814AB9BF
:109F9C00334B3448374AC01AC0080E24334B009454
:109FAC000004EBE7D0F800E0BEF1000F09D12C4B18
:109FBC002C48314AC01AC00808242C4B00940004C9
:109FCC00DCE74BB9264B27482C4AC01AC008092499
:109FDC00264B00940004D1E74768D7F80480B3FB04
:109FEC00F8F708FB17374FB11D4B1E48244AC01A0F
:109FFC00C00809241D4B00940004BFE78F0709D04B
:10A00C00174B18481F4AC01AC0081024174B00944D
:10A01C000004B3E712F0030F09D0114B11481A4A90
:10A02C00C01AC0081024114B00940004A6E7C7689E
:10A03C00B9420BD305694C1E1C44AC4206D8DEF861
:10A04C000C40A44602B0BDE8F0416047044B054803
:10A05C000E4AC01AC0081024044B009400048DE76B
:10A06C00741A0300DC1A0300DC22030084240300AE
:10A07C00E12203005E2303000A2303001D230300D7
:10A08C00642303008E230300A6230300C9230300CB
:10A09C00F7B580B92A4B2B482B4AC01AC0080E249E
:10A0AC002A4B009400042A4940F00100FDF74FFCB4
:10A0BC00204603B0F0BDD0F800C0BCF1000F09D1B0
:10A0CC001F4B2048234AC01AC00808241F4B009479
:10A0DC000004E8E74AB91A4B1A481F4AC01AC008CC
:10A0EC0009241A4B00940004DDE74768D7F800E018
:10A0FC000EF1FF370F4209D0114B1248174AC01A04
:10A10C00C0081024114B00940004CCE7C768B94276
:10A11C000CD304694D1E0EFB0255A54206D8DCF883
:10A12C001040A44603B0BDE8F0406047044B05481E
:10A13C000B4AC01AC0081024044B00940004B2E768
:10A14C00741A0300DC1A0300DC22030097240300BA
:10A15C00E12203000A2303001D230300F023030064
:10A16C001624030029DF704728DF704770B5036899
:10A17C009E6886B004460D466EB1142200216846D6
:10A18C0007F0C9FBA3680593237901952BB1012B2B
:10A19C000DD06846B04706B070BD01238DF8003075
:10A1AC0023690293E368039363690493F1E7022341
:10A1BC008DF80030E3681B030293F5E708467047FF
:10A1CC0000207047024B187A003818BF01207047E6
:10A1DC0040340020034B187A0122B0FA80F05A74F4
:10A1EC00400970474034002008B510461A4607F065
:10A1FC0069FB002008BD000008B5142200210448AA
:10A20C0007F089FB0348FEF770F9002008BD00BF7A
:10A21C00403400203034002010B5094C094B436009
:10A22C002046FEF7AFFA40B906F06CFE06492074E2
:10A23C001C2306488C22FEF745F9002010BD00BFF8
:10A24C0040340020AC240300A43300203034002020
:10A25C0070B5244C244E237A25463BB92349244817
:10A26C00FEF79FF9306008B9606070BD0223346856
:10A27C002B72237973B1012B25D020460321FFF7D4
:10A28C0075FF00232B726B6018491948BDE87040AC
:10A29C00FEF7B2B9D4E90523D21AB2F5805FD4E93E
:10A2AC00031028BF4FF480529208012A38BF0122B4
:10A2BC0019441844FFF756FF014650B11128DCD160
:10A2CC0001232B72D1E7D4E903031844FFF74CFFA9
:10A2DC00F2E72B7C002BC8D1BDE87040022000F0C7
:10A2EC0009B800BF403400205834002054340020FA
:10A2FC003034002038B5831E012B45D8234C237AEB
:10A30C00002B41D0022B09D1032830D0204B002246
:10A31C001B68E2601A793AB1012A22D0637C7BBBBC
:10A32C00BDE83840FFF794BFD3E905128D1AB5F597
:10A33C00805F94BF521902F580529A619142EDD11F
:10A34C0002284FF0000308BF19462372104B18BFA8
:10A35C000D211868FFF70AFF0E490F48FEF74CF95C
:10A36C00DCE71A6901321A615B699A42E7E7E36834
:10A37C000133082B01D8E360D0E70023E360DFE76B
:10A38C00BDE8384006F0AEBD38BD00BF40340020FB
:10A39C0058340020543400203034002000F0FD03E9
:10A3AC00012B08D1044B00225A74421E50425041DA
:10A3BC001874FFF74DBF70474034002010B5064CA1
:10A3CC00201DFEF7DFF928B9637C1BB9BDE81040EE
:10A3DC00FFF73EBF10BD00BF403400202DE9F34114
:10A3EC0080460D460F4801A916461F46FEF79FF8FA
:10A3FC000446A8B11C22002107F08DFA2D0B012375
:10A40C00237101A90748C4F80080A760E560666164
:10A41C00FEF7B7F8FFF7D2FF002002B0BDE8F081DD
:10A42C000420FAE7303400202DE9F74381468846B2
:10A43C00104801A917461E46FEF779F80446B0B13C
:10A44C001C22002107F067FA00250A9BA36001A9D2
:10A45C00C4E9037807482571C4F800906661FEF7DB
:10A46C0090F8FFF7ABFF284603B0BDE8F08304205B
:10A47C00FAE700BF30340020054B18680D2804D0D3
:10A48C00A0F110035842584170470120704700BF9B
:10A49C0030010010024AD2F80034002BFBD0704778
:10A4AC0000E0014010B5FFF7E7FF40B14FF08043EB
:10A4BC000022C3F80C21C3F81021C3F83825FFF78C
:10A4CC00DBFF002846D04FF080524E4BD2F80414DC
:10A4DC00C3F82015D2F80814C3F82415D2F80C14BC
:10A4EC00C3F82815D2F81014C3F82C15D2F814148C
:10A4FC00C3F83015D2F81814C3F83415D2F81C145C
:10A50C00C3F84015D2F82014C3F84415D2F824141B
:10A51C00C3F84815D2F82814C3F84C15D2F82C14EB
:10A52C00C3F85015D2F83014C3F85415D2F83414BB
:10A53C00C3F86015D2F83814C3F86415D2F83C147B
:10A54C00C3F86815D2F84014C3F86C15D2F844243B
:10A55C00C3F87025FFF790FF48B14FF08043D3F854
:10A56C000024D20744BF6FF00102C3F80024264B2D
:10A57C001A6804330D2A1B6839D1022B02D8234ADE
:10A58C00D35C3BB14FF01023D3F808224FF080433B
:10A59C00C3F858254FF01023D3F80022002A03DB10
:10A5AC00D3F80432002B28DA19490123C1F80435F9
:10A5BC00FFF770FF4FF010201224C0F80042FFF795
:10A5CC0069FFC0F80442FFF765FF0023C1F80435AA
:10A5DC00FFF760FFBFF34F8F0E490F4BCA6802F4B1
:10A5EC00E0621343CB60BFF34F8F00BFFDE7102A2F
:10A5FC00D0D1032BC6D8094AC2E7094B094A1A60C5
:10A60C0010BD00BF00C0004030010010D824030072
:10A61C0000E0014000ED00E00400FA05DB2403003B
:10A62C00402B00200090D0034FF0A043D3F804053A
:10A63C00C0F3807070474FF0A0434FF08042C3F8D6
:10A64C00082570474FF0A0434FF08042C3F80C250B
:10A65C0070474FF0A0434FF08042C3F80C25704771
:10A66C004FF0A0434FF08042C3F8082570474FF0DD
:10A67C00A042D2F80435D94301F0804103F0804365
:10A68C00C2F80815C2F80C357047C30706D54FF051
:10A69C00A0430322C3F87827FFF7DBBF7047000005
:10A6AC0038B5074C051E04F1080318BF1C46236877
:10A6BC002BB11A6822605B6828469847F7E738BDCB
:10A6CC006434002020B9054B01225A70FFF7E8BF13
:10A6DC00012802D1014A9070F8E770475C340020E1
:10A6EC0020B9034B01225A70FFF7DABF704700BF45
:10A6FC005C34002038B50E4C2378B3B90D48636038
:10A70C00A3602361E36000F0E5F8054606F0FAFB70
:10A71C0008B900F0EBF801232370074BD3F8003491
:10A72C000BB10123A370284638BD8525F5E700BF82
:10A73C005C340020D1A602000000014037B50D4C5E
:10A74C0000230DF107008DF80730FDF745FDE36898
:10A75C00013BE360E36833B9074BD3F8005415B9F8
:10A76C0000F0D6F8A5709DF80700FDF759FD03B071
:10A77C0030BD00BF5C34002000000140012813B53F
:10A78C000CD0032820D038B9124B0122C3F88020FA
:10A79C00BFF34F8FBFF36F8F02B010BD0E4C002371
:10A7AC000DF107008DF80730FDF716FD23780BB976
:10A7BC00FFF7A0FFE3689DF807000133E360012376
:10A7CC00A370FDF72DFDE7E700F090F8FFF7B6FF5B
:10A7DC00E2E700BF00E100E05C3400201FB5037825
:10A7EC008DF800304368019383688DF80830C36896
:10A7FC00054A0393054B684653F8213052F8211053
:10A80C00984705B05DF804FB7034002074340020C8
:10A81C001FB503788DF800304368019383688DF879
:10A82C000830C368054A0393054B684653F821303A
:10A83C0052F82110984705B05DF804FB70340020E5
:10A84C0074340020F0B5194B90F800C091F81DE05D
:10A85C0043F82C20164B16460A6943F82C20154B4E
:10A86C0003F80CE00C4607460FCC89B06D460FC5BB
:10A87C0094E80F0085E80F00CDF810C0BEF1000F72
:10A88C0009D0002E0C4A694608BF3246381D00F02C
:10A89C005BFC09B0F0BD002E084A694608BF324681
:10A8AC0007F10C0000F046FAF3E700BF7434002007
:10A8BC007034002078340020E9A702001DA80200A3
:10A8CC0000F18040002382B0036003680193019B78
:10A8DC0002B07047044B0246187918B91A6001226D
:10A8EC001A717047852070477C340020074B1A681A
:10A8FC00D20704D4C02283F8002301221A604FF03F
:10A90C0080430122C3F81825704700BF00E100E026
:10A91C004FF0804208B50223C2F808334FF482701E
:10A92C00FFF7CEFF034B01211960D2F81834DB037B
:10A93C00FBD408BD0C000040114B1B6810B563B173
:10A94C004FF48070FFF7BCFF4FF080430122C3F837
:10A95C0008230C4B00201B6898470B4B1B6873B1EA
:10A96C004FF48270FFF7ACFF4FF080430222C3F824
:10A97C000823044BBDE810401B680120184710BD8C
:10A98C00000100407C3400200401004000F18040B4
:10A99C0000F5C040002382B0036003680193019B63
:10A9AC0002B07047800000F1A040D0F8002722F4DC
:10A9BC004032C0F80027D0F8003743EA0143C0F812
:10A9CC00003770472DE9F74F00244E4D01944FF49A
:10A9DC008072012102F1804303F5C04390B21B68E1
:10A9EC00012B06D1D5F804330B4202D0FFF7CEFF72
:10A9FC000C430432B2F5907F4FEA4101EAD1424B4D
:10AA0C001B68012B0CD14FF4BE70FFF7BFFF4FF04A
:10AA1C00A04344F00044D3F820250192C3F820252C
:10AA2C0014F0FF0F1AD0394F00250126344210D0F4
:10AA3C00AB0003F1804303F5C043D3F81005D3F802
:10AA4C00101557F8253023B1C1F30141C0F3042090
:10AA5C0098470135082D4FEA4606E7D1002C48DA15
:10AA6C002A4D4FF0A0482A4E4FF00009012716F945
:10AA7C00013B5A1C31D0C3F3C20202A90A44DCB216
:10AA8C0012F8042C03F03F0A03F0070307FA03F350
:10AA9C001A4222D00AF5E073504658F82330C3F31B
:10AAAC00014BBBF1020F0CBF03210221FFF77AFF10
:10AABC0007FA0AF3C8F8203505EB0A0393F930308E
:10AACC0055F823304BB1A109032904D0BBF1020F77
:10AADC0012D1012901D15046984709F10109B9F168
:10AAEC00040FC4D1D8F820350193C8F82035002BB9
:10AAFC00B9D103B0BDE8F08FBBF1030FEDD1022942
:10AB0C00E8E700BF006000407C6100408434002016
:10AB1C00D4340020014B1B68184700BFE0340020E0
:10AB2C000E4B984237B50C4602D0002003B030BD16
:10AB3C0000230DF107008DF80730FDF74DFB084B96
:10AB4C001D7915B901221C601A719DF80700FDF7DB
:10AB5C0067FB002DE9D01120E8E700BF0020004082
:10AB6C00E0340020034B984201BF034B00221A60D3
:10AB7C001A71704700200040E0340020002343503D
:10AB8C0082B043580193019B02B070470A4610B53E
:10AB9C004FF48E71FFF7F2FF136A9168C95C136A68
:10ABAC0001331362C0F81C1510BD8B690A4610B531
:10ABBC004FF4847123B9FFF7E1FFD0F8183510BDBD
:10ABCC00FFF7DCFF536AD168D0F81805C854536AF4
:10ABDC0001335362F3E700001FB501238DF80030F9
:10ABEC00044BCDE90110D3E900126846904705B03B
:10ABFC005DF804FBE834002030B54C48D0F8043341
:10AC0C0013F4007F85B005464DD0D0F82431002BCD
:10AC1C0049D04FF49271FFF7B1FF4FF40173C0F8B4
:10AC2C000833434B93F829200AB9012242603F496B
:10AC3C0002228DF80020D1F88024C1F880240392E0
:10AC4C009A690292DA6801920022C3E906226846E8
:10AC5C00D3E9001290473548D0F81C315BB1344928
:10AC6C004A690B6A9A420A464AD991F82830002B55
:10AC7C0046D1FFF78BFF2D48D0F844318BB14FF400
:10AC8C00A271FFF77BFF2A4B93F829200AB101220E
:10AC9C0002609A692AB10022586AD9689A61FFF752
:10ACAC009BFF05B030BDD5F804335B07D3D5D5F881
:10ACBC000831002BCFD01E4C1C482146FFF775FFE6
:10ACCC00636AA2699A422346C5D1E269E1684AB136
:10ACDC002369E3600023606AA261E3616362FFF7AA
:10ACEC007BFFB8E794F829200AB901226A600F4A61
:10ACFC004FF40170C2F808030022586A9A61EEE71B
:10AD0C000A484FF48E71FFF739FF5369002BB2D00C
:10AD1C0051690291002391688DF8003001915361C3
:10AD2C006846D2E900139847A5E700BF0020004011
:10AD3C00E83400202DE9F843544B057991462C2238
:10AD4C0002FB0532064692F82A200C469846002A49
:10AD5C0040F098804E490068FFF7E2FE0746002855
:10AD6C0040F0928021683368481C0BD04FF0A04013
:10AD7C0001228A40C0F8082501F5E0724FF0030C5F
:10AD8C0040F822C06068421C1FBF00F5E0724FF013
:10AD9C00A04C4FF0000E4CF822E0A269C3F8242519
:10ADAC0094F814C0627DBCF1010F4CEA0202C3F8A6
:10ADBC006C25C3F81405C3F80C151DD1A1684A1CE9
:10ADCC001FBF01F5E0724FF0A0404FF0000C40F8AF
:10ADDC0022C0E268501C0BD04FF0A04C01209040D8
:10ADEC00CCF8080502F5E0704FF0030E4CF820E0AB
:10ADFC00C3F80825C3F810152C236B4308EB03028A
:10AE0C00C2F80490226948F80320B9F1000F21D050
:10AE1C003068247F4FF48E71FFF7B0FE4FF4A271AF
:10AE2C003068FFF7ABFE32681A4BC2F80433110BD3
:10AE3C0042F307326301002ADBB21EDB164884188A
:10AE4C0084F800330123520901F01F0103FA01F1C8
:10AE5C0040F8221033680422C3F800252C2303FB8E
:10AE6C0005830022C3E9062283F829205A610122B6
:10AE7C0083F82A203846BDE8F883084A01F00F0110
:10AE8C005354E7E70827F5E71127F3E7E8340020E8
:10AE9C0005AC02008000020000E100E014ED00E0CF
:10AEAC00F8B503680479304D0022C3F800252C2234
:10AEBC0002FB04525268A2B12C4AC3F808231A0BA5
:10AECC0043F30733002B0CDB02F01F015B0901225B
:10AEDC008A402033264941F82320BFF34F8FBFF31C
:10AEEC006F8F0068D0F80C65D0F81415D0F80835C1
:10AEFC00D0F810254FF0FF37BE42C0F8147518BFBC
:10AF0C0006F5E076C0F80C75C0F80875C0F8107539
:10AF1C001EBF4FF0A0474FF0020C47F826C04E1C46
:10AF2C001FBF4FF0A04601F5E071022746F82170D3
:10AF3C00511C1FBF4FF0A04102F5E072022641F8F0
:10AF4C0022605A1C1FBF03F5E0734FF0A042022190
:10AF5C0042F82310FFF706FE2C2303FB04540023B6
:10AF6C0084F82A306360F8BDE834002084020200C3
:10AF7C0000E100E02DE9F047204F90F804904FF0ED
:10AF8C002C0808FB097405466669002E34D16261F1
:10AF9C000068A16026624FF48E7184F82860FFF778
:10AFAC00EDFD2868012383602146FFF7EFFD636800
:10AFBC00A0468BB92868D4F814A0236A9A4511D8F6
:10AFCC002A68D2F81C31002BFBD00123D3602C2330
:10AFDC0003FB097300225A613046BDE8F08794F8F0
:10AFEC0028303BB9D0F81C31002BF8D04146FFF784
:10AFFC00CDFDE2E70F26EAE71126EDE7E834002065
:10B00C000023435082B043580193019B02B0704718
:10B01C001FB501238DF80030044BCDE90110D3E9A5
:10B02C0000126846904705B05DF804FB143500200B
:10B03C007FB5434AD2F82461002E60D010464FF4FD
:10B04C009271FFF7DDFF02238DF80030D2F88034C7
:10B05C00C2F880340393D2F83C350293394BDA684A
:10B06C0001920022C3E906226846D3E900129047F8
:10B07C003348D0F8443173B14FF4A271FFF7C0FFDD
:10B08C00304B9A693AB10022C3E90622D968D0F84C
:10B09C003C05FFF7BDFF2A48D0F82031ABB14FF487
:10B0AC009071FFF7ADFF0123C360264B5A6962B163
:10B0BC00D0F84C150291002299688DF8002001916E
:10B0CC005A616846D3E9001290471D48D0F85831B0
:10B0DC009BB14FF4AC71FFF793FF1A4B5A6962B1F5
:10B0EC00D0F84C150291002299688DF8002001913E
:10B0FC005A616846D3E90012904704B070BDD2F88B
:10B10C001031002BB4D04FF488711046FFF778FF44
:10B11C000C4BD2F83C0599698842A9D1DC69D968F5
:10B12C0064B1D2F8005225F02005C2F800521A6919
:10B13C009C61DA60DE61FFF76BFF99E79C61FAE7CF
:10B14C0000200040143500202DE9F8435B4B0679B4
:10B15C009146242202FB0632044692F820200D462A
:10B16C009846002A40F0A58055490068FFF7D8FCA6
:10B17C000746002840F09F8029682368481C0BD0A4
:10B18C004FF0A04001228A40C0F8082501F5E0727A
:10B19C004FF0030C40F822C06868421C1FBF00F53A
:10B1AC00E0724FF0A04C4FF0000E4CF822E0AA6970
:10B1BC00C3F8242595F814C06A7DBCF1010F4CEA44
:10B1CC000202C3F86C25C3F80C15C3F814051DD185
:10B1DC00A9684A1C1FBF01F5E0724FF0A0404FF068
:10B1EC00000C40F822C0EA68501C0BD04FF0A04C69
:10B1FC0001209040CCF8080502F5E0704FF0030EEA
:10B20C004CF820E0C3F80825C3F810152423734329
:10B21C0008EB0302C2F804902A6948F80320B9F13C
:10B22C00000F30D020682A7F4FF48871FFF7E8FEBA
:10B23C0020684FF49071FFF7E3FE20684FF4927191
:10B24C00FFF7DEFE20684FF4A271FFF7D9FE4FF432
:10B25C00AC712068FFF7D4FE23681A49C3F80413B5
:10B26C00190B43F307335201002BD2B21CDB1648E7
:10B27C00C51885F8002301225B0901F01F0102FAB1
:10B28C0001F140F8231023680822C3F80025242379
:10B29C0003FB06830022C3E906225A61012283F8CC
:10B2AC0020203846BDE8F883084B01F00F015A54B2
:10B2BC00E9E70827F5E71127F3E700BF143500206D
:10B2CC003DB002001003420000E100E014ED00E08C
:10B2DC00F8B5444D0479242303FB045302465B6800
:10B2EC000068ABB1404BC0F8083340F30733002B78
:10B2FC004FEA10310CDB01F01F065B090121B14054
:10B30C0020333A4E46F82310BFF34F8FBFF36F8FA5
:10B31C00D0F8003223F02003C0F80032242303FBC2
:10B32C0004539B692BB14FF4A271FFF769FE012303
:10B33C0043604FF4AC71FFF763FE0123C360242319
:10B34C0003FB0453D0F858110029FBD0996919B1AB
:10B35C00D0F844110029F5D00023C0F8003513684B
:10B36C00D3F80C75D3F81465D3F80825D3F8101559
:10B37C004FF0FF3C6745C3F80CC518BF07F5E077E5
:10B38C00C3F814C5C3F808C5C3F810C51EBF4FF0E9
:10B39C00A0434FF0020C43F827C0771C1FBF4FF09F
:10B3AC00A04306F5E076022743F826704E1C1FBF1B
:10B3BC0001F5E0714FF0A043022643F82160531CC5
:10B3CC001FBF4FF0A04302F5E072022143F8221098
:10B3DC00FFF7C8FB242303FB0454002384F820301C
:10B3EC006360F8BD143500201003420000E100E05A
:10B3FC0001F06043B3F1005F2DE9F041064638D10E
:10B40C001E4B0779242505FB073598466C69002CE3
:10B41C0031D16A610068A9604FF49071FFF7F0FDBB
:10B42C004FF4AC713068FFF7EBFD33686A69A968BB
:10B43C00C3F84415C3F8482501229A606A68AAB972
:10B44C00D3F82021D3F858411AB9002CF8D00F2486
:10B45C0007E0002CFBD10122DA60D3F85821002A36
:10B46C00FBD0242303FB078700237B612046BDE828
:10B47C00F0811024FAE71124F8E700BF14350020FE
:10B48C007FB503788DF804304368029383688DF898
:10B49C000C30C36804930369064A8DF81430064BCC
:10B4AC0001A853F8213052F82110984707B05DF8E5
:10B4BC0004FB00BF3835002040350020F0B50546B0
:10B4CC00174615F804CB124A42F82C70114A42F870
:10B4DC002C30114B0C460FCB85B06E4686E80F0016
:10B4EC002368009323798DF8053063798DF8063045
:10B4FC00A3680293002FA389084AADF80C3008BF4B
:10B50C003A4663463146284600F0CEF805B0F0BD09
:10B51C004035002038350020042503008DB402008E
:10B52C001FB503788DF800308388ADF8043083683C
:10B53C008DF80630C3688DF80730036902934369B0
:10B54C00054A0393054B684653F8213052F82110F5
:10B55C00984705B05DF804FB4835002050350020B5
:10B56C00024B4FF4807043F0010318472025030071
:10B57C002DE9F047174690F80090324A42F82970AE
:10B58C00314A42F829304B7B80460C4663B308683D
:10B59C00496882008B0002F1A04203F1A04340F203
:10B5AC000C65C2F800570126C3F800574FF0A045B0
:10B5BC0006FA00F006FA01F1C5F80805C5F80815F9
:10B5CC0040F20D61C2F80017C3F80017FFF7C8FF6F
:10B5DC004FF0000AD5F81025636822FA03F3DB0755
:10B5EC000ED5BAF1000F1ED1002F184A4B4608BFDA
:10B5FC003A46214608F10400BDE8F04700F0B4BA21
:10B60C00236806FA03F3C5F80C35FFF7A9FF236886
:10B61C0006FA03F3C5F808350AF1010AFFF7A0FF93
:10B62C00BAF1090FD6D1636801254FF0A04605FA8F
:10B63C0003F3C6F80C35FFF793FF63689D40C6F81B
:10B64C000855D1E750350020483500202DB50200B3
:10B65C004FF0402382B0D3F81831E3B10F4B0022E6
:10B66C001A601B680193019B0D4BD97FFF2907D0F2
:10B67C00987F01228A404FF0A04148B1C1F80C25B7
:10B68C0000225A771A72D3E90021064802B01047FB
:10B69C00C1F80825F4E702B0704700BF184100401C
:10B6AC0058350020603500202DE9F74F06790192BE
:10B6BC009A464FF02409624B09FB06F903EB090B80
:10B6CC0007469BF81C200C469846002A40F0B48094
:10B6DC0005685C492846FFF723FA002840F0AE8045
:10B6EC00019B48F80930CBF804A094F800C0217BEA
:10B6FC004FF0A042012303FA0CF3012994BFC2F8C6
:10B70C000C35C2F808350CF5E0734FF0010E42F819
:10B71C0023E06378FF2B1FBF0EFA03FEC2F80CE583
:10B72C0003F5E07E4FF0030918BF42F82E90A27883
:10B73C0008BF4FF0FF33FF2A1FBF02F5E07E4FF02A
:10B74C00A04A4FF0040B4AF82EB04FF0240E0EFB1B
:10B75C00068818BF914688F82020E27888F81F20C8
:10B76C0008BF4FF0FF39FF2ADFF8D48017D094F8C8
:10B77C0004A04FF0010B0BFA02FB4FF0A04EBAF1F4
:10B78C00000F4BD0CEF80CB502F5E0724FF0030B66
:10B79C004EF822B0242202FB068282F81EA0C5F8C5
:10B7AC0008C5C5F80C35A368C5F81095C5F824353F
:10B7BC00637B003B18BF0123022932D0032933D00D
:10B7CC00012901D143F00203C5F85435A379C5F81A
:10B7DC00C0350723C5F80035019BABB13B686279D6
:10B7EC0043F3073152010029C3F30733D2B21EDBF6
:10B7FC00154C651885F800230122490903F01F0335
:10B80C0002FA03F344F82130242303FB06860023B9
:10B81C0073770123337703B0BDE8F08FCEF808B50A
:10B82C00B2E743F00403CFE743F00603CCE7074944
:10B83C0003F00F03CA54E7E70820ECE71120EAE70E
:10B84C00583500205DB6020000E100E014ED00E088
:10B85C002DE9F3410679474F242373431446FA1814
:10B86C000D46517F8646002940F08180FB5823B15C
:10B87C0014F0140F04BF0123537795E80F004FF019
:10B88C00240C0CFB067C0CF10C0888E80F009CF8CF
:10B89C001F20FF2A08D09CF81E10012393404FF064
:10B8AC00A042C1B1C2F80835296821B101F060434A
:10B8BC00B3F1005F06D1AA6882B102F06043B3F124
:10B8CC00005F0BD0242303FB067600237377102034
:10B8DC0002B0BDE8F081C2F80C35E5E7DEF80030C7
:10B8EC006868C3F84415C3F84805E968C3F83425FB
:10B8FC000022C3F83815C3F81821D3F81821019287
:10B90C00019A14F0010218BF0122C3F8502514F05B
:10B91C00020218BF0122C3F8402522075CBF012296
:10B92C001A6124227243BA58B2B9D3F81821002AEA
:10B93C00FBD0242303FB0676F27FFF2A07D0B07FCF
:10B94C00012393404FF0A04218B1C2F80C350020EF
:10B95C00BEE7C2F80835BBE714F004004FF0400214
:10B96C0002D0C3F80823F2E7C3F80423B0E7112090
:10B97C00AEE700BF583500200023435082B0435837
:10B98C000193019B02B070470A7B0346032A29D816
:10B99C00DFE802F0212519028A68500304D5D3F898
:10B9AC004C250869904207D18A6852031AD4D3F8FF
:10B9BC004C254969914215D000200622C3F8000598
:10B9CC00C3F800257047D3F84C2508699042F3D191
:10B9DC00D3F83C25EDE7D3F84C250969EAE7D3F811
:10B9EC003C25FAE701207047F0B55A485A4CD0F87C
:10B9FC00243187B00546F3B14FF49271FFF7BCFFC9
:10BA0C00D0F80431BBB9A368C0F808330223A36093
:10BA1C00A368C0F80433D0F860311BB1D0F8003201
:10BA2C009F0503D44B4B01221A625A61012384F8FF
:10BA3C002E3007B0F0BDD5F80431002B52D045485C
:10BA4C004FF48271FFF798FF236A5E060AD494F8CC
:10BA5C002E303BB940493F48FFF796FF80F001007C
:10BA6C0084F82E00236A5D0721D43C4E0FCE01AD25
:10BA7C000FC5336837482B604FF4B071FFF77CFF6C
:10BA8C0034484FF4AE71FFF777FF94F8303013B1B0
:10BA9C0094F82E305BB12F4B0022C3F80022A26029
:10BAAC002F4AC3F808232F4B0822C3F88021294AB8
:10BABC00D2F8C434C2F8C43498073DD501238DF8AC
:10BACC00003094F830300BB984F82F30236A5B07C0
:10BADC0003D594F82E30002BABD0D4E90031684656
:10BAEC009847A6E71B484FF4A471FFF745FF237B4B
:10BAFC0083B91A4F0FCF01AE0FC63B68336094F871
:10BB0C003030002BD3D1C5F80032A360144BC5F8EC
:10BB1C000833C8E74FF40073C5F8003240F2022333
:10BB2C00A36003F1CE73C5F80833A368C5F80433DA
:10BB3C000123AB602B627CE7590701D50223BEE7DA
:10BB4C00DA0701D50323BAE794F82E30002BB6D0D0
:10BB5C000423B4E7003000407C35002088350020F9
:10BB6C0002029C0100E100E02DE9F84F0679304D0E
:10BB7C004FF0340A0AFB06FA05EB0A079B4697F8C6
:10BB8C002D3080460C469146002B4DD1294900683A
:10BB9C00FEF7C6FF002849D12168637B87F8323055
:10BBAC0001F5E0724FF0A043B860C7F804B087F815
:10BBBC002F0087F8300040F20C6745F80A9043F8E4
:10BBCC002270626802F5E07C43F82C70D8F80030E3
:10BBDC00C3F80815C3F80C25A268C3F82425B9F1DD
:10BBEC00000F14D0227B43F3073152010029C3F319
:10BBFC000733D2B213DB104C671887F800230122ED
:10BC0C00490903F01F0302FA03F344F821303423EB
:10BC1C0003FB0655012385F82D30BDE8F88F074945
:10BC2C0003F00F03CA54F2E70820F6E71120F4E7FB
:10BC3C007C350020F5B9020000E100E014ED00E0D5
:10BC4C00026803790621C2F80015044A342101FB6D
:10BC5C000323022283F82D20704700BF7C3500207F
:10BC6C002DE9F843B14F90F804900468342606FB94
:10BC7C000976002386F82E30CB6803F06043B3F1CD
:10BC8C00005F0D46904603D010263046BDE8F88381
:10BC9C00A74BC4F8083396F82F3023B1B368C4F817
:10BCAC0004331126F1E712F0140F0CBF012300230B
:10BCBC0086F82F308E46BEE80F0006F10C0CACE86F
:10BCCC000F00DEF80030CCF80030C8F3001386F813
:10BCDC003030C6F820806B78C4F8883520464FF495
:10BCEC008271FFF749FE4FF49271FFF745FE4FF456
:10BCFC00B071FFF741FE4FF4A471FFF73DFE18F051
:10BD0C00010318BF0123C4F8503518F0020318BF03
:10BD1C000123C4F840352B78032B00F2B480DFE804
:10BD2C0003F0839F68022B6903F06043B3F1005F5B
:10BD3C00AAD14FF48073C4F80032EA686B68C4F877
:10BD4C0044254FF4A871C4F84835FFF715FE0123BC
:10BD5C002362A360D4F85031002BFBD04FF4A871B0
:10BD6C002046FFF709FEAB682A69C4F84425C4F8DD
:10BD7C004835342303FB09734FF480229A6008235F
:10BD8C00002618F0080F04D12A78032A1CBF0122C0
:10BD9C00E250342303FB09F3FA18FB58002B75D13E
:10BDAC000125D4F84821D4F80431002B40F08880C8
:10BDBC00003A18BF0122D4F82431002B00F0878000
:10BDCC004FF492712046FFF7D7FDD4F86011D4F8E8
:10BDDC00003209B1980504D4256265610029E0D0D0
:10BDEC000022DB0573D54FF4A4712046FFF7C4FD88
:10BDFC00D7E76B68EA68C4F84425C4F848352B6962
:10BE0C0003F06042B2F1005F7FF43EAFAA68C4F861
:10BE1C0034354FF48453C4F83825C4F80032342335
:10BE2C0003FB0973022212E06B68EA68C4F844252C
:10BE3C0018F0200FC4F848354FF034030BD04FF4F2
:10BE4C008072C4F8002203FB09734FF480229A60BD
:10BE5C000123236293E74FF40072C4F80022DFE75A
:10BE6C006B68EA68C4F83425C4F838354FF480534D
:10BE7C00C4F80032342303FB097302229A600123B5
:10BE8C00236200237CE7082307267AE718F0040FC7
:10BE9C001CBF0023936018F0400F06D1342303FB22
:10BEAC0009739A6842F002029A60342303FB097703
:10BEBC00BB6843F40073BB60BB68C4F80433E4E6AE
:10BECC004FF482712046FFF757FD012273E7002AD9
:10BEDC003FF467AF3421D4F8C434C4F8C43401FB44
:10BEEC000972002082F82F0093B113F0010F14BFD8
:10BEFC004FF40246032648F2012213F0020F18BF3A
:10BF0C00164613F0040F48F2022318BF1E46BCE677
:10BF1C0018F0400F7FF4B9AE09FB01712046FFF712
:10BF2C0033FD002808BF0326AFE600BF7C35002098
:10BF3C0002029C0110B586B00024CDE902349DF8B4
:10BF4C0020308DF80510A342CDE9042401A914BFBB
:10BF5C00202222468DF80440FFF782FE06B010BD69
:10BF6C0010B586B0012402930023CDE903328DF87D
:10BF7C0005101A4601A98DF804400593FFF770FED1
:10BF8C0006B010BD0220FEF772BB0000034B1B78FD
:10BF9C0013B10020FEF756BBFEF75BBBB03500209B
:10BFAC00F8B57B4C237805461BB100232370FFF7B3
:10BFBC00EDFF172D00F28880DFE805F00C17174312
:10BFCC0054657680888D888D959A9A9A9A9AC4C968
:10BFDC00D1D9E4E4FFF7DAFF6E48FBF7F4FF6E4BC0
:10BFEC00002204461A702046F8BD0020FEF71CFB08
:10BFFC00F8B10020FEF726FB022D0CBF4FF4E161D7
:10C00C004FF47A61644B1D704FF400404FF47A7416
:10C01C000025E0FB01454FF4FA6200232046294637
:10C02C0005F058FB00220146BDE8F8405948FBF7E3
:10C03C009FBFFEF700FB022D0CBFC8214FF4C87147
:10C04C00E0E70020FEF7F0FA40B10020FEF7FAFA24
:10C05C004FF44871504B03221A70D5E7FEF7EBFAF8
:10C06C00C821F7E70020FEF7DFFA38B10020FEF711
:10C07C00E9FA4FF47A61484B0422EDE7FEF7DBFA5C
:10C08C004FF4C871F7E70020FEF7CEFA48B1002054
:10C09C00FEF7D8FA404B05221A7040F6CD4100222B
:10C0AC00C2E7FEF7C8FAF5E70020FEF7E0FA3A4BD4
:10C0BC0006221A70002240F26661B5E70020FEF7F6
:10C0CC00BAFA354B07221A7000248CE70120207035
:10C0DC00FEF7CDFAEEE701202070FEF7C8FA002239
:10C0EC004FF40051A0E7FEF7BBFA2B4B0C22EAE70A
:10C0FC002A482B4EFBF767FFD5F1110504461CD0DF
:10C10C00D8B9012D13D0C8235D434FF400474FF429
:10C11C007A7000214FF4FA620023C7FB050105F089
:10C12C00D9FA224601461D48FBF722FF044602209D
:10C13C00FEF781FA0123337055E70220FEF782FAED
:10C14C000023F8E7FFF722FF134B1222BBE7FFF7A0
:10C15C001DFF0020FEF76FFA0F4B1322B3E7FFF71A
:10C16C0015FF0120FEF767FA0B4B1422ABE7FFF724
:10C17C000DFF0020FEF75FFA0120FEF75CFA064B7C
:10C18C001522A0E7FEF76CFA034B1D709CE700BF6D
:10C19C00B8350020682B0020B9350020482B002032
:10C1AC00B0350020044B1B68DB0703D5034B187814
:10C1BC00FFF7F6BE704700BFB4350020B93500203C
:10C1CC00044B1B6813F0010301D0FFF7E9BE1846BE
:10C1DC00704700BFB435002008B50B4B186010F049
:10C1EC0001000FD00120FEF750FA084A0848002140
:10C1FC00FBF7ACFE30B9BDE80840064A0648012101
:10C20C00FBF7A4BE08BD00BFB4350020B1C10200CD
:10C21C003425030091BF020030250300072070472E
:10C22C000620704708B5012202210020FFF7F6FF17
:10C23C0008B1072810D1072202210120FFF7EEFFD9
:10C24C0008B1072808D100210A220846FFF7E6FFAB
:10C25C0010B1072808BF002008BD00000388102B70
:10C26C0010B502D0112B1ED010BD1A4C2168B1B9DB
:10C27C0001220846FFF7D2FF08B1072824D1072274
:10C28C0002210120FFF7CAFF08B107281CD10422A4
:10C29C0002210020FFF7C2FF08B1072814D1236840
:10C2AC0001332360E0E70B4A1368013B1360002B5A
:10C2BC00DAD1FFF7B7FF0028D6D0074B1B68002B4D
:10C2CC00D2D0BDE810401847034B1B68002BE6D0BA
:10C2DC009847E4E7C0350020BC35002008B50020A5
:10C2EC00FFF79EFF08B1062806D10120FFF798FF43
:10C2FC0010B1062808BF002008BD76DF70477ADF32
:10C30C0070477CDF70478FDF704733DF704700006A
:10C31C00014B01221A707047BA3A0020014B0122DE
:10C32C001A707047F8390020FBF7FDBC0388212BED
:10C33C0013B5044635D005D8102B17D0112B0AD0C5
:10C34C0002B010BD3B2B01D0562BF9D1A088132184
:10C35C00FFF7D3FF20E0174B17481849C01AC00845
:10C36C00000440F00300FBF7DBFAE9E7114B12483D
:10C37C001349C01AC008000440F00300FBF7D0FAC0
:10C38C000720FFF71DFF08B1FBF7CDFC0D4BA18873
:10C39C000D48198001F08AFB0028D1D0FBF7C3FCB3
:10C3AC00CEE7002301A98088ADF80430FFF7ABFF7E
:10C3BC00F2E700BF741A0300AC1A0300382503001F
:10C3CC0046250300B02B0020D03A00200B7813B187
:10C3DC00012B0AD070470848084B0949C01AC008FD
:10C3EC00000440F00300FBF79BBA0348034B0549DC
:10C3FC00C01AC0080004F4E7AC1A0300741A030056
:10C40C00512503007B25030008B503784BB9054B78
:10C41C003B211888FFF771FF18B1BDE80840FBF706
:10C42C0082BC08BDB02B002008B598B103281ED1E2
:10C43C000F4B10481049C01AC008000440F003000C
:10C44C00FBF76EFA0220FFF7BBFE80B1BDE8084097
:10C45C00FBF769BCFFF7B4FE08B1FBF764FCFFF710
:10C46C003DFF08B1FBF75FFCFFF74FFFEDE708BDA1
:10C47C00741A0300AC1A0300A625030008B505487E
:10C48C00032100F01FFD18B1BDE80840FBF74BBCC1
:10C49C0008BD00BFC435002010B5044603F05AFD9A
:10C4AC00204603F01BFB23780D2B03D1BDE8104075
:10C4BC00FFF7E4BF10BDFBF736BC00002DE9F047D9
:10C4CC00AA4DB0B0642445F001054FF47A40A8475A
:10C4DC00013CFAD14FF480412046FBF789F808B1B2
:10C4EC00FBF721FCFAF7C6FFFBF7FEFC08B1FBF7E4
:10C4FC001AFC9F4A9F480121FBF728FD08B1FBF766
:10C50C0012FC9D4A9D480121FBF720FD08B1FBF769
:10C51C000AFC00210120FFF75FFE08B1FBF703FCCA
:10C52C00FCF71CFC08B1FBF7FEFB04F06DFC08B13A
:10C53C00FBF7F9FB002305A90120059304F030FD5E
:10C54C0008B1FBF7F0FB05A804F0FAFD08B1FBF706
:10C55C00EAFB11238A488DF80C3005F00FFA884954
:10C56C0082B203A8FFF7CDFE08B1FBF7DCFB082273
:10C57C00002105A805F0CFF94FF006124FF0C87353
:10C58C0005A8CDE90523FFF7BAFE08B1FBF7CBFBF5
:10C59C007C48002101F082F908B1FBF7C4FB7A4B0F
:10C5AC007A48059305A901F06FFA08B1FBF7BBFBBC
:10C5BC00002306937648774B059305A904F030FECB
:10C5CC0008B1FBF7B0FBAC22002105A805F0A3F9DC
:10C5DC0002238DF8143040F20163ADF816300123BC
:10C5EC00ADF824308DF890304FF4C8636A4A279325
:10C5FC006A486B4B0A9205A92E9300F0ECFB08B12C
:10C60C00FBF791FB6548012100F0E2FB1C220021A5
:10C61C0005A805F080F900234FF4A032CDE90532CE
:10C62C00ADF822304FF4F0228DF824305D4B079298
:10C63C000A9303225C4B8DF8202005A80B9300F085
:10C64C0087FE08B1FBF76FFB02F064FF08B1FBF744
:10C65C006AFB0522002105A805F05DF9059B03F096
:10C66C007C42524B134305939DF8183023F003037F
:10C67C0043F0030305A88DF8183002F0EBFF08B166
:10C68C00FBF751FB4A4802F0CDFF08B1FBF74BFB1F
:10C69C0004F05AFE474C484D04F07AFE474BE41A1E
:10C6AC00E408240444F0030404F07DFF002800F0A7
:10C6BC00ED804349434D2046FBF732F904F0F1FE7F
:10C6CC00002800F0E88040492046FBF729F94FF09C
:10C6DC00A0433E4AC3F870273D4800222921FBF7AE
:10C6EC0047FC08B1FBF71FFB3A4800224FF4A4713A
:10C6FC00FBF73EFC08B1FBF716FB374E374FFFF745
:10C70C00BDFE00252C46B0463378002B00F09180FE
:10C71C003A884FF6FF739A4200F08B8003A804F01E
:10C72C00C5FF684604F0D2FF01A804F081FF05A8FC
:10C73C0004F0C9FE2A49A31D0DF10C09DBB22246F7
:10C74C008C4639F802EB4FEA1E2A01F802A0501C65
:10C75C000232C0B2D2B2934201F800E0F1D104F13E
:10C76C000C0001AA5FFA80F93CE000BF60260300D0
:10C77C001DC302006C26030029C3020068260300B7
:10C78C00B8250300BC3A002035C30200D03A002083
:10C79C00FC390020D9C30200882B0020C4350020AE
:10C7AC0035C4020015C40200C3C4020031071003D3
:10C7BC00A5C40200AC1A0300C4250300741A0300BC
:10C7CC00E225030007260300272603000C000300C4
:10C7DC00B82B0020902B0020BA3A0020B02B002060
:10C7EC00103A00209E460133DBB212F801AB0CF874
:10C7FC000EA09945F6D1BDF800E0C0B204F10D02CF
:10C80C004FEA1E23D2B20B5404F10E03153401F877
:10C81C0002E0DBB205A9E0B21A460133DBB211F833
:10C82C0001EB0CF802E09842F6D10023E4B288F850
:10C83C000030DFF8749099F80030FBB13A884FF66D
:10C84C00FF739A421AD0164916482B0A0B5501341D
:10C85C00E4B20D5504F03EFD013530F00802ADB2E6
:10C86C0009D020F00202112A05D043F20142904275
:10C87C0001D0FBF758FA002489F80040FAF70AFFB8
:10C88C0000287FF441AFFCF7A7FA3DE72946204684
:10C89C00FBF746F808E729462046FBF741F80DE779
:10C8AC00103A0020FC390020F83900206DDF704769
:10C8BC0079DF70477DDF704764DF70472DE9F04FFB
:10C8CC0085B000250E9CBDF83CB0B4F800A00191D9
:10C8DC00074690461E46A9463A884A450DDC45B1A6
:10C8EC002388013BA3EB0A039BB2FF2B3AD806F833
:10C8FC000A30002005B0BDE8F08F7A6852F82900A4
:10C90C00039000220DF10B0103A8FFF7D5FF0028BF
:10C91C00F0D19DF80B20424521D12288002D14BF67
:10C92C000020022002EB0801014459451ADC3DB9F4
:10C93C00013292B2019B2280B354228801322280B0
:10C94C0022880DF10B01324403A8FFF7B5FF002834
:10C95C00D0D121889DF80B200A442280012509F1B1
:10C96C000109B9E70C20C5E72DE9F341089FBDF893
:10C97C0024801546CDE90078022204461E46FFF7B6
:10C98C009DFF50B93346102229462046CDE9087840
:10C99C0002B0BDE8F041FFF791BF02B0BDE8F081F5
:10C9AC002DE9F04F00231788138090F82D3085B0B7
:10C9BC0006460D46144653B3082F01D80C2027E128
:10C9CC0002A8FFF773FF002840F022812388082279
:10C9DC00EA54238801339BB21B222380EA5420881B
:10C9EC00013080B2208006220DF10901284404F0A8
:10C9FC0069FF23889DF8082006339BB212F0FE02D3
:10CA0C0018BF01222380EA54238801332380B37892
:10CA1C00FBB123880433BB42D0D802A8FFF748FFF0
:10CA2C00002840F0F58023880322EA542388013340
:10CA3C009BB219222380EA542388BDF808200133C5
:10CA4C009BB2E9182380EA54120A4A7023880233F5
:10CA5C002380F2789AB12388D91CB942AED802212E
:10CA6C00E954238801339BB201212380E9542388A4
:10CA7C000B449BB22380EA5423880B4423807268B6
:10CA8C00AAB12388D91CB94298D8022192F9002066
:10CA9C00E954238801339BB20A212380E95423886B
:10CAAC0001339BB22380EA542388013323803389DA
:10CABC00002B40F0A180338A5BB1CDE900472B46B7
:10CACC000722032106F11000FFF74EFF002840F06B
